{
  "_format": "hh-sol-artifact-1",
  "contractName": "wallet",
  "contractAddress": "0xEAB810881028269Ff9FEA83A92193d2191E1C43C",
  "sourceName": "contracts/SmartWallet.sol",
  "abi": [
    {
      "inputs": [
        {
          "internalType": "address[]",
          "name": "_guardians",
          "type": "address[]"
        }
      ],
      "stateMutability": "nonpayable",
      "type": "constructor"
    },
    {
      "anonymous": false,
      "inputs": [
        {
          "indexed": false,
          "internalType": "uint256",
          "name": "_amount",
          "type": "uint256"
        },
        {
          "indexed": true,
          "internalType": "address",
          "name": "_from",
          "type": "address"
        }
      ],
      "name": "Deposits",
      "type": "event"
    },
    {
      "anonymous": false,
      "inputs": [
        {
          "indexed": false,
          "internalType": "uint256",
          "name": "_amount",
          "type": "uint256"
        },
        {
          "indexed": true,
          "internalType": "address",
          "name": "from",
          "type": "address"
        },
        {
          "indexed": true,
          "internalType": "address",
          "name": "to",
          "type": "address"
        }
      ],
      "name": "Withdrawal",
      "type": "event"
    },
    {
      "inputs": [
        {
          "internalType": "address",
          "name": "",
          "type": "address"
        },
        {
          "internalType": "address",
          "name": "",
          "type": "address"
        }
      ],
      "name": "allowance",
      "outputs": [
        {
          "internalType": "uint256",
          "name": "",
          "type": "uint256"
        }
      ],
      "stateMutability": "view",
      "type": "function"
    },
    {
      "inputs": [
        {
          "internalType": "address",
          "name": "_subOwner",
          "type": "address"
        },
        {
          "internalType": "uint256",
          "name": "_amt",
          "type": "uint256"
        }
      ],
      "name": "approval",
      "outputs": [],
      "stateMutability": "nonpayable",
      "type": "function"
    },
    {
      "inputs": [],
      "name": "approvalCnt",
      "outputs": [
        {
          "internalType": "uint256",
          "name": "",
          "type": "uint256"
        }
      ],
      "stateMutability": "view",
      "type": "function"
    },
    {
      "inputs": [
        {
          "internalType": "address",
          "name": "",
          "type": "address"
        }
      ],
      "name": "approvals",
      "outputs": [
        {
          "internalType": "bool",
          "name": "",
          "type": "bool"
        }
      ],
      "stateMutability": "view",
      "type": "function"
    },
    {
      "inputs": [
        {
          "internalType": "address",
          "name": "",
          "type": "address"
        }
      ],
      "name": "balances",
      "outputs": [
        {
          "internalType": "uint256",
          "name": "",
          "type": "uint256"
        }
      ],
      "stateMutability": "view",
      "type": "function"
    },
    {
      "inputs": [],
      "name": "deposits",
      "outputs": [],
      "stateMutability": "payable",
      "type": "function"
    },
    {
      "inputs": [
        {
          "internalType": "address",
          "name": "newOwner",
          "type": "address"
        }
      ],
      "name": "proposeNewOwner",
      "outputs": [],
      "stateMutability": "nonpayable",
      "type": "function"
    },
    {
      "inputs": [
        {
          "internalType": "address",
          "name": "_owner",
          "type": "address"
        },
        {
          "internalType": "uint256",
          "name": "_amt",
          "type": "uint256"
        }
      ],
      "name": "subWithdraw",
      "outputs": [],
      "stateMutability": "nonpayable",
      "type": "function"
    },
    {
      "inputs": [],
      "name": "tbalance",
      "outputs": [
        {
          "internalType": "uint256",
          "name": "",
          "type": "uint256"
        }
      ],
      "stateMutability": "view",
      "type": "function"
    },
    {
      "inputs": [
        {
          "internalType": "uint256",
          "name": "",
          "type": "uint256"
        }
      ],
      "name": "txnlist",
      "outputs": [
        {
          "internalType": "address payable",
          "name": "toAddress",
          "type": "address"
        },
        {
          "internalType": "uint256",
          "name": "amount",
          "type": "uint256"
        }
      ],
      "stateMutability": "view",
      "type": "function"
    },
    {
      "inputs": [
        {
          "internalType": "uint256",
          "name": "_amt",
          "type": "uint256"
        },
        {
          "internalType": "address payable",
          "name": "_to",
          "type": "address"
        }
      ],
      "name": "withdrawal",
      "outputs": [],
      "stateMutability": "nonpayable",
      "type": "function"
    },
    {
      "stateMutability": "payable",
      "type": "receive"
    }
  ],
  "bytecode": "0x608060405234801561001057600080fd5b50604051611ed0380380611ed083398181016040528101906100329190610382565b6005815114610076576040517f08c379a000000000000000000000000000000000000000000000000000000000815260040161006d90610428565b60405180910390fd5b33600160006101000a81548173ffffffffffffffffffffffffffffffffffffffff021916908373ffffffffffffffffffffffffffffffffffffffff16021790555060005b60058110156101b0576001600360008484815181106100dc576100db610448565b5b602002602001015173ffffffffffffffffffffffffffffffffffffffff1673ffffffffffffffffffffffffffffffffffffffff16815260200190815260200160002060006101000a81548160ff02191690831515021790555081818151811061014857610147610448565b5b60200260200101516004826005811061016457610163610448565b5b0160006101000a81548173ffffffffffffffffffffffffffffffffffffffff021916908373ffffffffffffffffffffffffffffffffffffffff16021790555080806001019150506100ba565b5050610477565b6000604051905090565b600080fd5b600080fd5b600080fd5b6000601f19601f8301169050919050565b7f4e487b7100000000000000000000000000000000000000000000000000000000600052604160045260246000fd5b610219826101d0565b810181811067ffffffffffffffff82111715610238576102376101e1565b5b80604052505050565b600061024b6101b7565b90506102578282610210565b919050565b600067ffffffffffffffff821115610277576102766101e1565b5b602082029050602081019050919050565b600080fd5b600073ffffffffffffffffffffffffffffffffffffffff82169050919050565b60006102b88261028d565b9050919050565b6102c8816102ad565b81146102d357600080fd5b50565b6000815190506102e5816102bf565b92915050565b60006102fe6102f98461025c565b610241565b9050808382526020820190506020840283018581111561032157610320610288565b5b835b8181101561034a578061033688826102d6565b845260208401935050602081019050610323565b5050509392505050565b600082601f830112610369576103686101cb565b5b81516103798482602086016102eb565b91505092915050565b600060208284031215610398576103976101c1565b5b600082015167ffffffffffffffff8111156103b6576103b56101c6565b5b6103c284828501610354565b91505092915050565b600082825260208201905092915050565b7f4d75737420686176652065786163746c79203520677561726469616e73000000600082015250565b6000610412601d836103cb565b915061041d826103dc565b602082019050919050565b6000602082019050818103600083015261044181610405565b9050919050565b7f4e487b7100000000000000000000000000000000000000000000000000000000600052603260045260246000fd5b611a4a806104866000396000f3fe6080604052600436106100a05760003560e01c806375247a581161006457806375247a58146101975780638dfbc149146101c0578063b1f8100d146101eb578063c3a72e3d14610214578063da0dd0eb1461023d578063dd62ed3e14610268576100a7565b8063190d7c55146100ac57806327e235e3146100d5578063323a5e0b14610112578063476b588c1461011c5780635d0341ba1461015a576100a7565b366100a757005b600080fd5b3480156100b857600080fd5b506100d360048036038101906100ce9190611281565b6102a5565b005b3480156100e157600080fd5b506100fc60048036038101906100f791906112ff565b6106b6565b604051610109919061133b565b60405180910390f35b61011a6106ce565b005b34801561012857600080fd5b50610143600480360381019061013e9190611356565b610781565b604051610151929190611392565b60405180910390f35b34801561016657600080fd5b50610181600480360381019061017c91906112ff565b6107d5565b60405161018e91906113d6565b60405180910390f35b3480156101a357600080fd5b506101be60048036038101906101b991906113f1565b6107f5565b005b3480156101cc57600080fd5b506101d561087a565b6040516101e2919061133b565b60405180910390f35b3480156101f757600080fd5b50610212600480360381019061020d91906112ff565b610880565b005b34801561022057600080fd5b5061023b600480360381019061023691906113f1565b610c5a565b005b34801561024957600080fd5b506102526111bd565b60405161025f919061133b565b60405180910390f35b34801561027457600080fd5b5061028f600480360381019061028a9190611431565b6111c3565b60405161029c919061133b565b60405180910390f35b600160149054906101000a900460ff16156102f5576040517f08c379a00000000000000000000000000000000000000000000000000000000081526004016102ec906114ce565b60405180910390fd5b60018060146101000a81548160ff0219169083151502179055506005600260003373ffffffffffffffffffffffffffffffffffffffff1673ffffffffffffffffffffffffffffffffffffffff168152602001908152602001600020548161035c919061151d565b42101561039e576040517f08c379a0000000000000000000000000000000000000000000000000000000008152600401610395906115c3565b60405180910390fd5b82600c60003373ffffffffffffffffffffffffffffffffffffffff1673ffffffffffffffffffffffffffffffffffffffff168152602001908152602001600020541015610420576040517f08c379a00000000000000000000000000000000000000000000000000000000081526004016104179061162f565b60405180910390fd5b600073ffffffffffffffffffffffffffffffffffffffff168273ffffffffffffffffffffffffffffffffffffffff160361048f576040517f08c379a00000000000000000000000000000000000000000000000000000000081526004016104869061169b565b60405180910390fd5b82600c60003373ffffffffffffffffffffffffffffffffffffffff1673ffffffffffffffffffffffffffffffffffffffff16815260200190815260200160002060008282546104de91906116bb565b92505081905550826000808282546104f691906116bb565b925050819055508173ffffffffffffffffffffffffffffffffffffffff166108fc849081150290604051600060405180830381858888f19350505050158015610543573d6000803e3d6000fd5b50600d60405180604001604052808473ffffffffffffffffffffffffffffffffffffffff16815260200185815250908060018154018082558091505060019003906000526020600020906002020160009091909190915060008201518160000160006101000a81548173ffffffffffffffffffffffffffffffffffffffff021916908373ffffffffffffffffffffffffffffffffffffffff1602179055506020820151816001015550508173ffffffffffffffffffffffffffffffffffffffff163373ffffffffffffffffffffffffffffffffffffffff167fc8a211cc64b6ed1b50595a9fcb1932b6d1e5a6e8ef15b60e5b1f988ea9086bba8560405161064a919061133b565b60405180910390a342600260003373ffffffffffffffffffffffffffffffffffffffff1673ffffffffffffffffffffffffffffffffffffffff16815260200190815260200160002081905550506000600160146101000a81548160ff0219169083151502179055505050565b600c6020528060005260406000206000915090505481565b60003411610711576040517f08c379a00000000000000000000000000000000000000000000000000000000081526004016107089061173b565b60405180910390fd5b34600c60003373ffffffffffffffffffffffffffffffffffffffff1673ffffffffffffffffffffffffffffffffffffffff1681526020019081526020016000206000828254610760919061151d565b9250508190555034600080828254610778919061151d565b92505081905550565b600d818154811061079157600080fd5b90600052602060002090600202016000915090508060000160009054906101000a900473ffffffffffffffffffffffffffffffffffffffff16908060010154905082565b600a6020528060005260406000206000915054906101000a900460ff1681565b80600e60003373ffffffffffffffffffffffffffffffffffffffff1673ffffffffffffffffffffffffffffffffffffffff16815260200190815260200160002060008473ffffffffffffffffffffffffffffffffffffffff1673ffffffffffffffffffffffffffffffffffffffff168152602001908152602001600020819055505050565b600b5481565b600360003373ffffffffffffffffffffffffffffffffffffffff1673ffffffffffffffffffffffffffffffffffffffff16815260200190815260200160002060009054906101000a900460ff1661090c576040517f08c379a0000000000000000000000000000000000000000000000000000000008152600401610903906117a7565b60405180910390fd5b600073ffffffffffffffffffffffffffffffffffffffff16600960009054906101000a900473ffffffffffffffffffffffffffffffffffffffff1673ffffffffffffffffffffffffffffffffffffffff1614806109b657508073ffffffffffffffffffffffffffffffffffffffff16600960009054906101000a900473ffffffffffffffffffffffffffffffffffffffff1673ffffffffffffffffffffffffffffffffffffffff16145b6109f5576040517f08c379a00000000000000000000000000000000000000000000000000000000081526004016109ec90611813565b60405180910390fd5b600a60003373ffffffffffffffffffffffffffffffffffffffff1673ffffffffffffffffffffffffffffffffffffffff16815260200190815260200160002060009054906101000a900460ff16610ab7576001600a60003373ffffffffffffffffffffffffffffffffffffffff1673ffffffffffffffffffffffffffffffffffffffff16815260200190815260200160002060006101000a81548160ff021916908315150217905550600b6000815480929190610ab190611833565b91905055505b80600960006101000a81548173ffffffffffffffffffffffffffffffffffffffff021916908373ffffffffffffffffffffffffffffffffffffffff1602179055506003600b5410610c5757600960009054906101000a900473ffffffffffffffffffffffffffffffffffffffff16600160006101000a81548173ffffffffffffffffffffffffffffffffffffffff021916908373ffffffffffffffffffffffffffffffffffffffff1602179055506000600960006101000a81548173ffffffffffffffffffffffffffffffffffffffff021916908373ffffffffffffffffffffffffffffffffffffffff1602179055506000600b8190555060005b6005811015610c55576000600a600060048460058110610bd557610bd461187b565b5b0160009054906101000a900473ffffffffffffffffffffffffffffffffffffffff1673ffffffffffffffffffffffffffffffffffffffff1673ffffffffffffffffffffffffffffffffffffffff16815260200190815260200160002060006101000a81548160ff0219169083151502179055508080600101915050610bb2565b505b50565b600160149054906101000a900460ff1615610caa576040517f08c379a0000000000000000000000000000000000000000000000000000000008152600401610ca1906114ce565b60405180910390fd5b60018060146101000a81548160ff0219169083151502179055506005600260003373ffffffffffffffffffffffffffffffffffffffff1673ffffffffffffffffffffffffffffffffffffffff1681526020019081526020016000205481610d11919061151d565b421015610d53576040517f08c379a0000000000000000000000000000000000000000000000000000000008152600401610d4a906115c3565b60405180910390fd5b81600e60008573ffffffffffffffffffffffffffffffffffffffff1673ffffffffffffffffffffffffffffffffffffffff16815260200190815260200160002060003373ffffffffffffffffffffffffffffffffffffffff1673ffffffffffffffffffffffffffffffffffffffff168152602001908152602001600020541015610e12576040517f08c379a0000000000000000000000000000000000000000000000000000000008152600401610e09906118f6565b60405180910390fd5b81600c60008573ffffffffffffffffffffffffffffffffffffffff1673ffffffffffffffffffffffffffffffffffffffff168152602001908152602001600020541015610e94576040517f08c379a0000000000000000000000000000000000000000000000000000000008152600401610e8b90611988565b60405180910390fd5b600073ffffffffffffffffffffffffffffffffffffffff168373ffffffffffffffffffffffffffffffffffffffff1603610f03576040517f08c379a0000000000000000000000000000000000000000000000000000000008152600401610efa906119f4565b60405180910390fd5b81600e60008573ffffffffffffffffffffffffffffffffffffffff1673ffffffffffffffffffffffffffffffffffffffff16815260200190815260200160002060003373ffffffffffffffffffffffffffffffffffffffff1673ffffffffffffffffffffffffffffffffffffffff1681526020019081526020016000206000828254610f8f91906116bb565b9250508190555081600c60008573ffffffffffffffffffffffffffffffffffffffff1673ffffffffffffffffffffffffffffffffffffffff1681526020019081526020016000206000828254610fe591906116bb565b9250508190555081600080828254610ffd91906116bb565b925050819055503373ffffffffffffffffffffffffffffffffffffffff166108fc839081150290604051600060405180830381858888f1935050505015801561104a573d6000803e3d6000fd5b503373ffffffffffffffffffffffffffffffffffffffff168373ffffffffffffffffffffffffffffffffffffffff167fc8a211cc64b6ed1b50595a9fcb1932b6d1e5a6e8ef15b60e5b1f988ea9086bba846040516110a8919061133b565b60405180910390a3600d60405180604001604052803373ffffffffffffffffffffffffffffffffffffffff16815260200184815250908060018154018082558091505060019003906000526020600020906002020160009091909190915060008201518160000160006101000a81548173ffffffffffffffffffffffffffffffffffffffff021916908373ffffffffffffffffffffffffffffffffffffffff16021790555060208201518160010155505042600260003373ffffffffffffffffffffffffffffffffffffffff1673ffffffffffffffffffffffffffffffffffffffff16815260200190815260200160002081905550506000600160146101000a81548160ff0219169083151502179055505050565b60005481565b600e602052816000526040600020602052806000526040600020600091509150505481565b600080fd5b6000819050919050565b611200816111ed565b811461120b57600080fd5b50565b60008135905061121d816111f7565b92915050565b600073ffffffffffffffffffffffffffffffffffffffff82169050919050565b600061124e82611223565b9050919050565b61125e81611243565b811461126957600080fd5b50565b60008135905061127b81611255565b92915050565b60008060408385031215611298576112976111e8565b5b60006112a68582860161120e565b92505060206112b78582860161126c565b9150509250929050565b60006112cc82611223565b9050919050565b6112dc816112c1565b81146112e757600080fd5b50565b6000813590506112f9816112d3565b92915050565b600060208284031215611315576113146111e8565b5b6000611323848285016112ea565b91505092915050565b611335816111ed565b82525050565b6000602082019050611350600083018461132c565b92915050565b60006020828403121561136c5761136b6111e8565b5b600061137a8482850161120e565b91505092915050565b61138c81611243565b82525050565b60006040820190506113a76000830185611383565b6113b4602083018461132c565b9392505050565b60008115159050919050565b6113d0816113bb565b82525050565b60006020820190506113eb60008301846113c7565b92915050565b60008060408385031215611408576114076111e8565b5b6000611416858286016112ea565b92505060206114278582860161120e565b9150509250929050565b60008060408385031215611448576114476111e8565b5b6000611456858286016112ea565b9250506020611467858286016112ea565b9150509250929050565b600082825260208201905092915050565b7f697420697320616c726561647920736563757265000000000000000000000000600082015250565b60006114b8601483611471565b91506114c382611482565b602082019050919050565b600060208201905081810360008301526114e7816114ab565b9050919050565b7f4e487b7100000000000000000000000000000000000000000000000000000000600052601160045260246000fd5b6000611528826111ed565b9150611533836111ed565b925082820190508082111561154b5761154a6114ee565b5b92915050565b7f746f6f206561726c7920746f20696e697461746520616e6f746865722074726160008201527f6e73616374696f6e000000000000000000000000000000000000000000000000602082015250565b60006115ad602883611471565b91506115b882611551565b604082019050919050565b600060208201905081810360008301526115dc816115a0565b9050919050565b7f496e73756666696369656e742066756e647320746f2077697468647261770000600082015250565b6000611619601e83611471565b9150611624826115e3565b602082019050919050565b600060208201905081810360008301526116488161160c565b9050919050565b7f43616e6e6f7420776974686472617720746f207a65726f206164647265737300600082015250565b6000611685601f83611471565b91506116908261164f565b602082019050919050565b600060208201905081810360008301526116b481611678565b9050919050565b60006116c6826111ed565b91506116d1836111ed565b92508282039050818111156116e9576116e86114ee565b5b92915050565b7f696e73756666696369656e742066756e6420746f206465706f73697400000000600082015250565b6000611725601c83611471565b9150611730826116ef565b602082019050919050565b6000602082019050818103600083015261175481611718565b9050919050565b7f4f6e6c7920677561726469616e732063616e2070726f706f7365000000000000600082015250565b6000611791601a83611471565b915061179c8261175b565b602082019050919050565b600060208201905081810360008301526117c081611784565b9050919050565b7f416e6f746865722070726f706f73616c20616374697665000000000000000000600082015250565b60006117fd601783611471565b9150611808826117c7565b602082019050919050565b6000602082019050818103600083015261182c816117f0565b9050919050565b600061183e826111ed565b91507fffffffffffffffffffffffffffffffffffffffffffffffffffffffffffffffff82036118705761186f6114ee565b5b600182019050919050565b7f4e487b7100000000000000000000000000000000000000000000000000000000600052603260045260246000fd5b7f696e73756666696369656e742066756e647320746f2077697468647261770000600082015250565b60006118e0601e83611471565b91506118eb826118aa565b602082019050919050565b6000602082019050818103600083015261190f816118d3565b9050919050565b7f6f776e657220646f65736e7420686176652073756666696369656e742066756e60008201527f6473000000000000000000000000000000000000000000000000000000000000602082015250565b6000611972602283611471565b915061197d82611916565b604082019050919050565b600060208201905081810360008301526119a181611965565b9050919050565b7f496e76616c6964206f776e657220616464726573730000000000000000000000600082015250565b60006119de601583611471565b91506119e9826119a8565b602082019050919050565b60006020820190508181036000830152611a0d816119d1565b905091905056fea2646970667358221220cabd2ee6c15758f42c4d6a6cc22b4ceb4a77f49a1c7bfc349c555d10d855652464736f6c634300081c0033",
  "linkReferences": {},
  "deployedLinkReferences": {}
}